{"abi":[{"type":"constructor","inputs":[{"name":"_musdToken","type":"address","internalType":"address"},{"name":"_priceFeed","type":"address","internalType":"address"},{"name":"_minCollateral","type":"uint256","internalType":"uint256"},{"name":"_feeRateBps","type":"uint256","internalType":"uint256"},{"name":"_interestRateBps","type":"uint256","internalType":"uint256"}],"stateMutability":"nonpayable"},{"type":"receive","stateMutability":"payable"},{"type":"function","name":"BASIS_POINTS","inputs":[],"outputs":[{"name":"","type":"uint256","internalType":"uint256"}],"stateMutability":"view"},{"type":"function","name":"LIQUIDATION_LTV_BPS","inputs":[],"outputs":[{"name":"","type":"uint256","internalType":"uint256"}],"stateMutability":"view"},{"type":"function","name":"LIQUIDATION_PENALTY_BPS","inputs":[],"outputs":[{"name":"","type":"uint256","internalType":"uint256"}],"stateMutability":"view"},{"type":"function","name":"MAX_LTV_BPS","inputs":[],"outputs":[{"name":"","type":"uint256","internalType":"uint256"}],"stateMutability":"view"},{"type":"function","name":"RAY","inputs":[],"outputs":[{"name":"","type":"uint256","internalType":"uint256"}],"stateMutability":"view"},{"type":"function","name":"SECONDS_PER_YEAR","inputs":[],"outputs":[{"name":"","type":"uint256","internalType":"uint256"}],"stateMutability":"view"},{"type":"function","name":"accrueInterest","inputs":[{"name":"owner","type":"address","internalType":"address"}],"outputs":[],"stateMutability":"nonpayable"},{"type":"function","name":"borrow","inputs":[{"name":"amount","type":"uint256","internalType":"uint256"}],"outputs":[],"stateMutability":"nonpayable"},{"type":"function","name":"depositCollateral","inputs":[],"outputs":[],"stateMutability":"payable"},{"type":"function","name":"feeRateBps","inputs":[],"outputs":[{"name":"","type":"uint256","internalType":"uint256"}],"stateMutability":"view"},{"type":"function","name":"getCollateralValue","inputs":[{"name":"owner","type":"address","internalType":"address"}],"outputs":[{"name":"","type":"uint256","internalType":"uint256"}],"stateMutability":"view"},{"type":"function","name":"getCurrentLtv","inputs":[{"name":"owner","type":"address","internalType":"address"}],"outputs":[{"name":"","type":"uint256","internalType":"uint256"}],"stateMutability":"view"},{"type":"function","name":"getHealthFactor","inputs":[{"name":"owner","type":"address","internalType":"address"}],"outputs":[{"name":"","type":"uint256","internalType":"uint256"}],"stateMutability":"view"},{"type":"function","name":"getMaxBorrow","inputs":[{"name":"owner","type":"address","internalType":"address"}],"outputs":[{"name":"","type":"uint256","internalType":"uint256"}],"stateMutability":"view"},{"type":"function","name":"interestRateBps","inputs":[],"outputs":[{"name":"","type":"uint256","internalType":"uint256"}],"stateMutability":"view"},{"type":"function","name":"liquidate","inputs":[{"name":"owner","type":"address","internalType":"address"},{"name":"debtToCover","type":"uint256","internalType":"uint256"}],"outputs":[],"stateMutability":"nonpayable"},{"type":"function","name":"minCollateral","inputs":[],"outputs":[{"name":"","type":"uint256","internalType":"uint256"}],"stateMutability":"view"},{"type":"function","name":"musdToken","inputs":[],"outputs":[{"name":"","type":"address","internalType":"contract IERC20"}],"stateMutability":"view"},{"type":"function","name":"owner","inputs":[],"outputs":[{"name":"","type":"address","internalType":"address"}],"stateMutability":"view"},{"type":"function","name":"positions","inputs":[{"name":"","type":"address","internalType":"address"}],"outputs":[{"name":"btcDeposited","type":"uint256","internalType":"uint256"},{"name":"musdBorrowed","type":"uint256","internalType":"uint256"},{"name":"lastAccruedAt","type":"uint256","internalType":"uint256"},{"name":"exists","type":"bool","internalType":"bool"}],"stateMutability":"view"},{"type":"function","name":"priceFeed","inputs":[],"outputs":[{"name":"","type":"address","internalType":"contract PriceFeed"}],"stateMutability":"view"},{"type":"function","name":"renounceOwnership","inputs":[],"outputs":[],"stateMutability":"nonpayable"},{"type":"function","name":"repay","inputs":[{"name":"amount","type":"uint256","internalType":"uint256"}],"outputs":[],"stateMutability":"nonpayable"},{"type":"function","name":"totalBtcDeposited","inputs":[],"outputs":[{"name":"","type":"uint256","internalType":"uint256"}],"stateMutability":"view"},{"type":"function","name":"totalMusdBorrowed","inputs":[],"outputs":[{"name":"","type":"uint256","internalType":"uint256"}],"stateMutability":"view"},{"type":"function","name":"transferOwnership","inputs":[{"name":"newOwner","type":"address","internalType":"address"}],"outputs":[],"stateMutability":"nonpayable"},{"type":"function","name":"updateConfig","inputs":[{"name":"_minCollateral","type":"uint256","internalType":"uint256"},{"name":"_feeRateBps","type":"uint256","internalType":"uint256"},{"name":"_interestRateBps","type":"uint256","internalType":"uint256"}],"outputs":[],"stateMutability":"nonpayable"},{"type":"function","name":"withdrawCollateral","inputs":[{"name":"amount","type":"uint256","internalType":"uint256"}],"outputs":[],"stateMutability":"nonpayable"},{"type":"event","name":"Borrowed","inputs":[{"name":"owner","type":"address","indexed":true,"internalType":"address"},{"name":"amount","type":"uint256","indexed":false,"internalType":"uint256"},{"name":"totalDebt","type":"uint256","indexed":false,"internalType":"uint256"}],"anonymous":false},{"type":"event","name":"CardCreated","inputs":[{"name":"owner","type":"address","indexed":true,"internalType":"address"},{"name":"cardId","type":"bytes32","indexed":false,"internalType":"bytes32"},{"name":"limit","type":"uint256","indexed":false,"internalType":"uint256"}],"anonymous":false},{"type":"event","name":"CollateralDeposited","inputs":[{"name":"owner","type":"address","indexed":true,"internalType":"address"},{"name":"amount","type":"uint256","indexed":false,"internalType":"uint256"},{"name":"totalBtc","type":"uint256","indexed":false,"internalType":"uint256"}],"anonymous":false},{"type":"event","name":"CollateralWithdrawn","inputs":[{"name":"owner","type":"address","indexed":true,"internalType":"address"},{"name":"amount","type":"uint256","indexed":false,"internalType":"uint256"},{"name":"totalBtc","type":"uint256","indexed":false,"internalType":"uint256"}],"anonymous":false},{"type":"event","name":"InterestAccrued","inputs":[{"name":"owner","type":"address","indexed":true,"internalType":"address"},{"name":"interestAmount","type":"uint256","indexed":false,"internalType":"uint256"}],"anonymous":false},{"type":"event","name":"Liquidated","inputs":[{"name":"owner","type":"address","indexed":true,"internalType":"address"},{"name":"liquidator","type":"address","indexed":true,"internalType":"address"},{"name":"debtCovered","type":"uint256","indexed":false,"internalType":"uint256"},{"name":"collateralSeized","type":"uint256","indexed":false,"internalType":"uint256"}],"anonymous":false},{"type":"event","name":"OwnershipTransferred","inputs":[{"name":"previousOwner","type":"address","indexed":true,"internalType":"address"},{"name":"newOwner","type":"address","indexed":true,"internalType":"address"}],"anonymous":false},{"type":"event","name":"Repaid","inputs":[{"name":"owner","type":"address","indexed":true,"internalType":"address"},{"name":"amount","type":"uint256","indexed":false,"internalType":"uint256"},{"name":"remainingDebt","type":"uint256","indexed":false,"internalType":"uint256"}],"anonymous":false},{"type":"event","name":"VaultConfigUpdated","inputs":[{"name":"minCollateral","type":"uint256","indexed":false,"internalType":"uint256"},{"name":"feeRateBps","type":"uint256","indexed":false,"internalType":"uint256"},{"name":"interestRateBps","type":"uint256","indexed":false,"internalType":"uint256"}],"anonymous":false},{"type":"event","name":"VaultInitialized","inputs":[{"name":"musdToken","type":"address","indexed":false,"internalType":"address"},{"name":"priceFeed","type":"address","indexed":false,"internalType":"address"}],"anonymous":false},{"type":"error","name":"ExceedsMaxLTV","inputs":[]},{"type":"error","name":"InsufficientCollateral","inputs":[]},{"type":"error","name":"NotLiquidatable","inputs":[]},{"type":"error","name":"OutstandingLoan","inputs":[]},{"type":"error","name":"OverRepay","inputs":[]},{"type":"error","name":"OwnableInvalidOwner","inputs":[{"name":"owner","type":"address","internalType":"address"}]},{"type":"error","name":"OwnableUnauthorizedAccount","inputs":[{"name":"account","type":"address","internalType":"address"}]},{"type":"error","name":"PositionNotFound","inputs":[]},{"type":"error","name":"ReentrancyGuardReentrantCall","inputs":[]},{"type":"error","name":"StalePrice","inputs":[]},{"type":"error","name":"TransferFailed","inputs":[]},{"type":"error","name":"ZeroAmount","inputs":[]}],"bytecode":{"object":"0x60806040523480156200001157600080fd5b5060405162002bcd38038062002bcd833981810160405281019062000037919062000480565b33600073ffffffffffffffffffffffffffffffffffffffff168173ffffffffffffffffffffffffffffffffffffffff1603620000ad5760006040517f1e4fbdf7000000000000000000000000000000000000000000000000000000008152600401620000a4919062000519565b60405180910390fd5b620000be816200031760201b60201c565b5060018081905550600073ffffffffffffffffffffffffffffffffffffffff168573ffffffffffffffffffffffffffffffffffffffff160362000138576040517f08c379a00000000000000000000000000000000000000000000000000000000081526004016200012f9062000597565b60405180910390fd5b600073ffffffffffffffffffffffffffffffffffffffff168473ffffffffffffffffffffffffffffffffffffffff1603620001aa576040517f08c379a0000000000000000000000000000000000000000000000000000000008152600401620001a19062000609565b60405180910390fd5b6101f4821115620001f2576040517f08c379a0000000000000000000000000000000000000000000000000000000008152600401620001e9906200067b565b60405180910390fd5b6107d08111156200023a576040517f08c379a00000000000000000000000000000000000000000000000000000000081526004016200023190620006ed565b60405180910390fd5b84600260006101000a81548173ffffffffffffffffffffffffffffffffffffffff021916908373ffffffffffffffffffffffffffffffffffffffff16021790555083600360006101000a81548173ffffffffffffffffffffffffffffffffffffffff021916908373ffffffffffffffffffffffffffffffffffffffff1602179055508260048190555081600581905550806006819055507f3a72e8ae02f203cb5415fd3bfacaad88fa2923e8b6210e8c033253cea65b605b8585604051620003049291906200070f565b60405180910390a150505050506200073c565b60008060009054906101000a900473ffffffffffffffffffffffffffffffffffffffff169050816000806101000a81548173ffffffffffffffffffffffffffffffffffffffff021916908373ffffffffffffffffffffffffffffffffffffffff1602179055508173ffffffffffffffffffffffffffffffffffffffff168173ffffffffffffffffffffffffffffffffffffffff167f8be0079c531659141344cd1fd0a4f28419497f9722a3daafe3b4186f6b6457e060405160405180910390a35050565b600080fd5b600073ffffffffffffffffffffffffffffffffffffffff82169050919050565b60006200040d82620003e0565b9050919050565b6200041f8162000400565b81146200042b57600080fd5b50565b6000815190506200043f8162000414565b92915050565b6000819050919050565b6200045a8162000445565b81146200046657600080fd5b50565b6000815190506200047a816200044f565b92915050565b600080600080600060a086880312156200049f576200049e620003db565b5b6000620004af888289016200042e565b9550506020620004c2888289016200042e565b9450506040620004d58882890162000469565b9350506060620004e88882890162000469565b9250506080620004fb8882890162000469565b9150509295509295909350565b620005138162000400565b82525050565b600060208201905062000530600083018462000508565b92915050565b600082825260208201905092915050565b7f5a65726f204d55534420746f6b656e0000000000000000000000000000000000600082015250565b60006200057f600f8362000536565b91506200058c8262000547565b602082019050919050565b60006020820190508181036000830152620005b28162000570565b9050919050565b7f5a65726f20707269636520666565640000000000000000000000000000000000600082015250565b6000620005f1600f8362000536565b9150620005fe82620005b9565b602082019050919050565b600060208201905081810360008301526200062481620005e2565b9050919050565b7f4665652072617465206d61782035250000000000000000000000000000000000600082015250565b600062000663600f8362000536565b915062000670826200062b565b602082019050919050565b60006020820190508181036000830152620006968162000654565b9050919050565b7f496e7465726573742072617465206d6178203230250000000000000000000000600082015250565b6000620006d560158362000536565b9150620006e2826200069d565b602082019050919050565b600060208201905081810360008301526200070881620006c6565b9050919050565b600060408201905062000726600083018562000508565b62000735602083018462000508565b9392505050565b612481806200074c6000396000f3fe6080604052600436106101bb5760003560e01c80639198e515116100ec578063c84a208b1161008a578063f2fde38b11610064578063f2fde38b146106da578063fc54ddfb14610703578063fd1c317a1461072e578063fe6bcd7c1461076b576102d5565b8063c84a208b14610659578063e1f1c4a714610684578063e6a69ab8146106af576102d5565b8063a0edc786116100c6578063a0edc786146105b1578063ba2de9bc146105dc578063bcbaf48714610607578063c5ebeaec14610630576102d5565b80639198e5151461052057806397904e42146105495780639d78d46b14610586576102d5565b80636112fe2e1161015957806373ad49461161013357806373ad494614610476578063741bef1a1461049f57806388c7fff3146104ca5780638da5cb5b146104f5576102d5565b80636112fe2e1461042c5780636f75814014610455578063715018a61461045f576102d5565b806331674e321161019557806331674e321461035b578063371fd8e614610398578063552033c4146103c157806355f57510146103ec576102d5565b80631bfaae1d146102da578063251e297014610305578063307ae5d114610330576102d5565b366102d55760003403156102d3576000600960003373ffffffffffffffffffffffffffffffffffffffff1673ffffffffffffffffffffffffffffffffffffffff16815260200190815260200160002090508060030160009054906101000a900460ff166102495760018160030160006101000a81548160ff0219169083151502179055504281600201819055505b3481600001600082825461025d9190611dd1565b9250508190555034600760008282546102769190611dd1565b925050819055503373ffffffffffffffffffffffffffffffffffffffff167ff4d587c98d234ca4d147061e6b5167e7f41ee17f11562a9f0b49570abece859e3483600001546040516102c9929190611e14565b60405180910390a2505b005b600080fd5b3480156102e657600080fd5b506102ef6107a8565b6040516102fc9190611e3d565b60405180910390f35b34801561031157600080fd5b5061031a6107ae565b6040516103279190611e3d565b60405180910390f35b34801561033c57600080fd5b506103456107b4565b6040516103529190611e3d565b60405180910390f35b34801561036757600080fd5b50610382600480360381019061037d9190611ebb565b6107ba565b60405161038f9190611e3d565b60405180910390f35b3480156103a457600080fd5b506103bf60048036038101906103ba9190611f14565b610895565b005b3480156103cd57600080fd5b506103d6610b1b565b6040516103e39190611e3d565b60405180910390f35b3480156103f857600080fd5b50610413600480360381019061040e9190611ebb565b610b2b565b6040516104239493929190611f5c565b60405180910390f35b34801561043857600080fd5b50610453600480360381019061044e9190611f14565b610b68565b005b61045d610df3565b005b34801561046b57600080fd5b50610474610f48565b005b34801561048257600080fd5b5061049d60048036038101906104989190611fa1565b610f5c565b005b3480156104ab57600080fd5b506104b4611043565b6040516104c19190612053565b60405180910390f35b3480156104d657600080fd5b506104df611069565b6040516104ec9190611e3d565b60405180910390f35b34801561050157600080fd5b5061050a61106f565b604051610517919061207d565b60405180910390f35b34801561052c57600080fd5b5061054760048036038101906105429190611ebb565b611098565b005b34801561055557600080fd5b50610570600480360381019061056b9190611ebb565b611211565b60405161057d9190611e3d565b60405180910390f35b34801561059257600080fd5b5061059b611348565b6040516105a891906120b9565b60405180910390f35b3480156105bd57600080fd5b506105c661136e565b6040516105d39190611e3d565b60405180910390f35b3480156105e857600080fd5b506105f1611374565b6040516105fe9190611e3d565b60405180910390f35b34801561061357600080fd5b5061062e600480360381019061062991906120d4565b61137a565b005b34801561063c57600080fd5b5061065760048036038101906106529190611f14565b611788565b005b34801561066557600080fd5b5061066e611a16565b60405161067b9190611e3d565b60405180910390f35b34801561069057600080fd5b50610699611a1c565b6040516106a69190611e3d565b60405180910390f35b3480156106bb57600080fd5b506106c4611a22565b6040516106d19190611e3d565b60405180910390f35b3480156106e657600080fd5b5061070160048036038101906106fc9190611ebb565b611a2a565b005b34801561070f57600080fd5b50610718611ab0565b6040516107259190611e3d565b60405180910390f35b34801561073a57600080fd5b5061075560048036038101906107509190611ebb565b611ab6565b6040516107629190611e3d565b60405180910390f35b34801561077757600080fd5b50610792600480360381019061078d9190611ebb565b611b89565b60405161079f9190611e3d565b60405180910390f35b61177081565b60075481565b60085481565b600080600960008473ffffffffffffffffffffffffffffffffffffffff1673ffffffffffffffffffffffffffffffffffffffff16815260200190815260200160002090508060030160009054906101000a900460ff161580610820575060008160010154145b1561082f576000915050610890565b600061083a84611211565b90506000810361086e577fffffffffffffffffffffffffffffffffffffffffffffffffffffffffffffffff92505050610890565b8061271083600101546108819190612114565b61088b9190612185565b925050505b919050565b61089d611bf6565b600081036108d7576040517f1f2a200500000000000000000000000000000000000000000000000000000000815260040160405180910390fd5b6000600960003373ffffffffffffffffffffffffffffffffffffffff1673ffffffffffffffffffffffffffffffffffffffff16815260200190815260200160002090508060030160009054906101000a900460ff16610962576040517f6ec9be1100000000000000000000000000000000000000000000000000000000815260040160405180910390fd5b61096b33611098565b80600101548211156109a9576040517fe8cc3bfe00000000000000000000000000000000000000000000000000000000815260040160405180910390fd5b818160010160008282546109bd91906121b6565b9250508190555081600860008282546109d691906121b6565b925050819055506000600260009054906101000a900473ffffffffffffffffffffffffffffffffffffffff1673ffffffffffffffffffffffffffffffffffffffff166323b872dd3330866040518463ffffffff1660e01b8152600401610a3e939291906121ea565b6020604051808303816000875af1158015610a5d573d6000803e3d6000fd5b505050506040513d601f19601f82011682018060405250810190610a81919061224d565b905080610aba576040517f90b8ec1800000000000000000000000000000000000000000000000000000000815260040160405180910390fd5b3373ffffffffffffffffffffffffffffffffffffffff167f1b8cd61ed43bec7c6bdad3a18ffee613f99c853d16c50678d248d879e1b43438848460010154604051610b06929190611e14565b60405180910390a25050610b18611c3c565b50565b6b033b2e3c9fd0803ce800000081565b60096020528060005260406000206000915090508060000154908060010154908060020154908060030160009054906101000a900460ff16905084565b610b70611bf6565b60008103610baa576040517f1f2a200500000000000000000000000000000000000000000000000000000000815260040160405180910390fd5b6000600960003373ffffffffffffffffffffffffffffffffffffffff1673ffffffffffffffffffffffffffffffffffffffff16815260200190815260200160002090508060030160009054906101000a900460ff16610c35576040517f6ec9be1100000000000000000000000000000000000000000000000000000000815260040160405180910390fd5b8181600001541015610c73576040517f3a23d82500000000000000000000000000000000000000000000000000000000815260040160405180910390fd5b610c7c33611098565b600081600101541115610cbb576040517f7f21f59900000000000000000000000000000000000000000000000000000000815260040160405180910390fd5b81816000016000828254610ccf91906121b6565b925050819055508160076000828254610ce891906121b6565b9250508190555060003373ffffffffffffffffffffffffffffffffffffffff1683604051610d15906122ab565b60006040518083038185875af1925050503d8060008114610d52576040519150601f19603f3d011682016040523d82523d6000602084013e610d57565b606091505b5050905080610d92576040517f90b8ec1800000000000000000000000000000000000000000000000000000000815260040160405180910390fd5b3373ffffffffffffffffffffffffffffffffffffffff167fdaed309a628faec6cab72194019e2a1a34e890ca9bf9be99788992dd54692819848460000154604051610dde929190611e14565b60405180910390a25050610df0611c3c565b50565b610dfb611bf6565b60003403610e35576040517f1f2a200500000000000000000000000000000000000000000000000000000000815260040160405180910390fd5b6000600960003373ffffffffffffffffffffffffffffffffffffffff1673ffffffffffffffffffffffffffffffffffffffff16815260200190815260200160002090508060030160009054906101000a900460ff16610eb55760018160030160006101000a81548160ff0219169083151502179055504281600201819055505b34816000016000828254610ec99190611dd1565b925050819055503460076000828254610ee29190611dd1565b925050819055503373ffffffffffffffffffffffffffffffffffffffff167ff4d587c98d234ca4d147061e6b5167e7f41ee17f11562a9f0b49570abece859e348360000154604051610f35929190611e14565b60405180910390a250610f46611c3c565b565b610f50611c45565b610f5a6000611ccc565b565b610f64611c45565b6101f4821115610fa9576040517f08c379a0000000000000000000000000000000000000000000000000000000008152600401610fa09061231d565b60405180910390fd5b6107d0811115610fee576040517f08c379a0000000000000000000000000000000000000000000000000000000008152600401610fe590612389565b60405180910390fd5b8260048190555081600581905550806006819055507f8226352383b99b58ecc22a7ad7f309078c5c580bbcca11690be61762d89d7fc6838383604051611036939291906123a9565b60405180910390a1505050565b600360009054906101000a900473ffffffffffffffffffffffffffffffffffffffff1681565b60055481565b60008060009054906101000a900473ffffffffffffffffffffffffffffffffffffffff16905090565b6000600960008373ffffffffffffffffffffffffffffffffffffffff1673ffffffffffffffffffffffffffffffffffffffff16815260200190815260200160002090508060030160009054906101000a900460ff1615806110fd575060008160010154145b8061110a57506000600654145b15611115575061120e565b600081600201544261112791906121b6565b90506000810361113857505061120e565b60006127106301e1338061114c9190612114565b82600654856001015461115f9190612114565b6111699190612114565b6111739190612185565b9050600081111561120a57808360010160008282546111929190611dd1565b9250508190555042836002018190555080600860008282546111b49190611dd1565b925050819055508373ffffffffffffffffffffffffffffffffffffffff167f5e804d42ae3b860f881d11cb44a4bb1f2f0d5b3d081f5539a32d6f97b629d978826040516112019190611e3d565b60405180910390a25b5050505b50565b600080600960008473ffffffffffffffffffffffffffffffffffffffff1673ffffffffffffffffffffffffffffffffffffffff16815260200190815260200160002090508060030160009054906101000a900460ff161580611277575060008160000154145b15611286576000915050611343565b6000600360009054906101000a900473ffffffffffffffffffffffffffffffffffffffff1673ffffffffffffffffffffffffffffffffffffffff1663a035b1fe6040518163ffffffff1660e01b8152600401602060405180830381865afa1580156112f5573d6000803e3d6000fd5b505050506040513d601f19601f8201168201806040525081019061131991906123f5565b9050670de0b6b3a76400008183600001546113349190612114565b61133e9190612185565b925050505b919050565b600260009054906101000a900473ffffffffffffffffffffffffffffffffffffffff1681565b611d4c81565b60045481565b611382611bf6565b600081036113bc576040517f1f2a200500000000000000000000000000000000000000000000000000000000815260040160405180910390fd5b3373ffffffffffffffffffffffffffffffffffffffff168273ffffffffffffffffffffffffffffffffffffffff16036113f457600080fd5b6000600960008473ffffffffffffffffffffffffffffffffffffffff1673ffffffffffffffffffffffffffffffffffffffff16815260200190815260200160002090508060030160009054906101000a900460ff1661147f576040517f6ec9be1100000000000000000000000000000000000000000000000000000000815260040160405180910390fd5b61148883611098565b6000611493846107ba565b9050611d4c81116114d0576040517fddeb79ba00000000000000000000000000000000000000000000000000000000815260040160405180910390fd5b81600101548311156114e457816001015492505b60006127106101f4856114f79190612114565b6115019190612185565b9050600081856115119190611dd1565b9050836000015481111561152757836000015490505b6000600260009054906101000a900473ffffffffffffffffffffffffffffffffffffffff1673ffffffffffffffffffffffffffffffffffffffff166323b872dd3330896040518463ffffffff1660e01b8152600401611588939291906121ea565b6020604051808303816000875af11580156115a7573d6000803e3d6000fd5b505050506040513d601f19601f820116820180604052508101906115cb919061224d565b905080611604576040517f90b8ec1800000000000000000000000000000000000000000000000000000000815260040160405180910390fd5b8185600001600082825461161891906121b6565b925050819055508585600101600082825461163391906121b6565b92505081905550816007600082825461164c91906121b6565b92505081905550856008600082825461166591906121b6565b9250508190555060003373ffffffffffffffffffffffffffffffffffffffff1683604051611692906122ab565b60006040518083038185875af1925050503d80600081146116cf576040519150601f19603f3d011682016040523d82523d6000602084013e6116d4565b606091505b505090508061170f576040517f90b8ec1800000000000000000000000000000000000000000000000000000000815260040160405180910390fd5b3373ffffffffffffffffffffffffffffffffffffffff168873ffffffffffffffffffffffffffffffffffffffff167f1f0c6615429d1cdae0dfa233abf91d3b31cdbdd82c8081389832a61e1072f1ea898660405161176e929190611e14565b60405180910390a3505050505050611784611c3c565b5050565b611790611bf6565b600081036117ca576040517f1f2a200500000000000000000000000000000000000000000000000000000000815260040160405180910390fd5b6000600960003373ffffffffffffffffffffffffffffffffffffffff1673ffffffffffffffffffffffffffffffffffffffff16815260200190815260200160002090508060030160009054906101000a900460ff16611855576040517f6ec9be1100000000000000000000000000000000000000000000000000000000815260040160405180910390fd5b61185e33611098565b600061186933611ab6565b9050808311156118a5576040517fa52d441200000000000000000000000000000000000000000000000000000000815260040160405180910390fd5b828260010160008282546118b99190611dd1565b9250508190555082600860008282546118d29190611dd1565b925050819055506000600260009054906101000a900473ffffffffffffffffffffffffffffffffffffffff1673ffffffffffffffffffffffffffffffffffffffff1663a9059cbb33866040518363ffffffff1660e01b8152600401611938929190612422565b6020604051808303816000875af1158015611957573d6000803e3d6000fd5b505050506040513d601f19601f8201168201806040525081019061197b919061224d565b9050806119b4576040517f90b8ec1800000000000000000000000000000000000000000000000000000000815260040160405180910390fd5b3373ffffffffffffffffffffffffffffffffffffffff167feae9cfbc77fdd40ca899f36b608256063b2bc9d8178b0220f7ad513e178d6730858560010154604051611a00929190611e14565b60405180910390a2505050611a13611c3c565b50565b60065481565b61271081565b6301e1338081565b611a32611c45565b600073ffffffffffffffffffffffffffffffffffffffff168173ffffffffffffffffffffffffffffffffffffffff1603611aa45760006040517f1e4fbdf7000000000000000000000000000000000000000000000000000000008152600401611a9b919061207d565b60405180910390fd5b611aad81611ccc565b50565b6101f481565b600080600960008473ffffffffffffffffffffffffffffffffffffffff1673ffffffffffffffffffffffffffffffffffffffff16815260200190815260200160002090508060030160009054906101000a900460ff161580611b1c575060008160000154145b15611b2b576000915050611b84565b6000611b3684611211565b9050600061271061177083611b4b9190612114565b611b559190612185565b905082600101548111611b6e5760009350505050611b84565b826001015481611b7e91906121b6565b93505050505b919050565b600080611b95836107ba565b905060008103611bc8577fffffffffffffffffffffffffffffffffffffffffffffffffffffffffffffffff915050611bf1565b806b033b2e3c9fd0803ce8000000611d4c611be39190612114565b611bed9190612185565b9150505b919050565b600260015403611c32576040517f3ee5aeb500000000000000000000000000000000000000000000000000000000815260040160405180910390fd5b6002600181905550565b60018081905550565b611c4d611d90565b73ffffffffffffffffffffffffffffffffffffffff16611c6b61106f565b73ffffffffffffffffffffffffffffffffffffffff1614611cca57611c8e611d90565b6040517f118cdaa7000000000000000000000000000000000000000000000000000000008152600401611cc1919061207d565b60405180910390fd5b565b60008060009054906101000a900473ffffffffffffffffffffffffffffffffffffffff169050816000806101000a81548173ffffffffffffffffffffffffffffffffffffffff021916908373ffffffffffffffffffffffffffffffffffffffff1602179055508173ffffffffffffffffffffffffffffffffffffffff168173ffffffffffffffffffffffffffffffffffffffff167f8be0079c531659141344cd1fd0a4f28419497f9722a3daafe3b4186f6b6457e060405160405180910390a35050565b600033905090565b6000819050919050565b7f4e487b7100000000000000000000000000000000000000000000000000000000600052601160045260246000fd5b6000611ddc82611d98565b9150611de783611d98565b9250828201905080821115611dff57611dfe611da2565b5b92915050565b611e0e81611d98565b82525050565b6000604082019050611e296000830185611e05565b611e366020830184611e05565b9392505050565b6000602082019050611e526000830184611e05565b92915050565b600080fd5b600073ffffffffffffffffffffffffffffffffffffffff82169050919050565b6000611e8882611e5d565b9050919050565b611e9881611e7d565b8114611ea357600080fd5b50565b600081359050611eb581611e8f565b92915050565b600060208284031215611ed157611ed0611e58565b5b6000611edf84828501611ea6565b91505092915050565b611ef181611d98565b8114611efc57600080fd5b50565b600081359050611f0e81611ee8565b92915050565b600060208284031215611f2a57611f29611e58565b5b6000611f3884828501611eff565b91505092915050565b60008115159050919050565b611f5681611f41565b82525050565b6000608082019050611f716000830187611e05565b611f7e6020830186611e05565b611f8b6040830185611e05565b611f986060830184611f4d565b95945050505050565b600080600060608486031215611fba57611fb9611e58565b5b6000611fc886828701611eff565b9350506020611fd986828701611eff565b9250506040611fea86828701611eff565b9150509250925092565b6000819050919050565b600061201961201461200f84611e5d565b611ff4565b611e5d565b9050919050565b600061202b82611ffe565b9050919050565b600061203d82612020565b9050919050565b61204d81612032565b82525050565b60006020820190506120686000830184612044565b92915050565b61207781611e7d565b82525050565b6000602082019050612092600083018461206e565b92915050565b60006120a382612020565b9050919050565b6120b381612098565b82525050565b60006020820190506120ce60008301846120aa565b92915050565b600080604083850312156120eb576120ea611e58565b5b60006120f985828601611ea6565b925050602061210a85828601611eff565b9150509250929050565b600061211f82611d98565b915061212a83611d98565b925082820261213881611d98565b9150828204841483151761214f5761214e611da2565b5b5092915050565b7f4e487b7100000000000000000000000000000000000000000000000000000000600052601260045260246000fd5b600061219082611d98565b915061219b83611d98565b9250826121ab576121aa612156565b5b828204905092915050565b60006121c182611d98565b91506121cc83611d98565b92508282039050818111156121e4576121e3611da2565b5b92915050565b60006060820190506121ff600083018661206e565b61220c602083018561206e565b6122196040830184611e05565b949350505050565b61222a81611f41565b811461223557600080fd5b50565b60008151905061224781612221565b92915050565b60006020828403121561226357612262611e58565b5b600061227184828501612238565b91505092915050565b600081905092915050565b50565b600061229560008361227a565b91506122a082612285565b600082019050919050565b60006122b682612288565b9150819050919050565b600082825260208201905092915050565b7f4665652072617465206d61782035250000000000000000000000000000000000600082015250565b6000612307600f836122c0565b9150612312826122d1565b602082019050919050565b60006020820190508181036000830152612336816122fa565b9050919050565b7f496e7465726573742072617465206d6178203230250000000000000000000000600082015250565b60006123736015836122c0565b915061237e8261233d565b602082019050919050565b600060208201905081810360008301526123a281612366565b9050919050565b60006060820190506123be6000830186611e05565b6123cb6020830185611e05565b6123d86040830184611e05565b949350505050565b6000815190506123ef81611ee8565b92915050565b60006020828403121561240b5761240a611e58565b5b6000612419848285016123e0565b91505092915050565b6000604082019050612437600083018561206e565b6124446020830184611e05565b939250505056fea2646970667358221220938d437e3953b6eefc7225d2566b633434dbd50f8f3d67f72e4ead69099408c864736f6c63430008180033","linkReferences":{}},"methodIdentifiers":{"BASIS_POINTS()":"e1f1c4a7","LIQUIDATION_LTV_BPS()":"a0edc786","LIQUIDATION_PENALTY_BPS()":"fc54ddfb","MAX_LTV_BPS()":"1bfaae1d","RAY()":"552033c4","SECONDS_PER_YEAR()":"e6a69ab8","accrueInterest(address)":"9198e515","borrow(uint256)":"c5ebeaec","depositCollateral()":"6f758140","feeRateBps()":"88c7fff3","getCollateralValue(address)":"97904e42","getCurrentLtv(address)":"31674e32","getHealthFactor(address)":"fe6bcd7c","getMaxBorrow(address)":"fd1c317a","interestRateBps()":"c84a208b","liquidate(address,uint256)":"bcbaf487","minCollateral()":"ba2de9bc","musdToken()":"9d78d46b","owner()":"8da5cb5b","positions(address)":"55f57510","priceFeed()":"741bef1a","renounceOwnership()":"715018a6","repay(uint256)":"371fd8e6","totalBtcDeposited()":"251e2970","totalMusdBorrowed()":"307ae5d1","transferOwnership(address)":"f2fde38b","updateConfig(uint256,uint256,uint256)":"73ad4946","withdrawCollateral(uint256)":"6112fe2e"},"id":23}