{"abi":[{"type":"constructor","inputs":[{"name":"_btcToken","type":"address","internalType":"address"},{"name":"_musdToken","type":"address","internalType":"address"},{"name":"_priceFeed","type":"address","internalType":"address"},{"name":"_minCollateral","type":"uint256","internalType":"uint256"},{"name":"_feeRateBps","type":"uint256","internalType":"uint256"},{"name":"_interestRateBps","type":"uint256","internalType":"uint256"}],"stateMutability":"nonpayable"},{"type":"function","name":"BASIS_POINTS","inputs":[],"outputs":[{"name":"","type":"uint256","internalType":"uint256"}],"stateMutability":"view"},{"type":"function","name":"LIQUIDATION_LTV_BPS","inputs":[],"outputs":[{"name":"","type":"uint256","internalType":"uint256"}],"stateMutability":"view"},{"type":"function","name":"LIQUIDATION_PENALTY_BPS","inputs":[],"outputs":[{"name":"","type":"uint256","internalType":"uint256"}],"stateMutability":"view"},{"type":"function","name":"MAX_LTV_BPS","inputs":[],"outputs":[{"name":"","type":"uint256","internalType":"uint256"}],"stateMutability":"view"},{"type":"function","name":"RAY","inputs":[],"outputs":[{"name":"","type":"uint256","internalType":"uint256"}],"stateMutability":"view"},{"type":"function","name":"SECONDS_PER_YEAR","inputs":[],"outputs":[{"name":"","type":"uint256","internalType":"uint256"}],"stateMutability":"view"},{"type":"function","name":"accrueInterest","inputs":[{"name":"owner","type":"address","internalType":"address"}],"outputs":[],"stateMutability":"nonpayable"},{"type":"function","name":"borrow","inputs":[{"name":"amount","type":"uint256","internalType":"uint256"}],"outputs":[],"stateMutability":"nonpayable"},{"type":"function","name":"btcToken","inputs":[],"outputs":[{"name":"","type":"address","internalType":"contract IERC20"}],"stateMutability":"view"},{"type":"function","name":"depositCollateral","inputs":[{"name":"amount","type":"uint256","internalType":"uint256"}],"outputs":[],"stateMutability":"nonpayable"},{"type":"function","name":"feeRateBps","inputs":[],"outputs":[{"name":"","type":"uint256","internalType":"uint256"}],"stateMutability":"view"},{"type":"function","name":"getCollateralValue","inputs":[{"name":"owner","type":"address","internalType":"address"}],"outputs":[{"name":"","type":"uint256","internalType":"uint256"}],"stateMutability":"view"},{"type":"function","name":"getCurrentLtv","inputs":[{"name":"owner","type":"address","internalType":"address"}],"outputs":[{"name":"","type":"uint256","internalType":"uint256"}],"stateMutability":"view"},{"type":"function","name":"getHealthFactor","inputs":[{"name":"owner","type":"address","internalType":"address"}],"outputs":[{"name":"","type":"uint256","internalType":"uint256"}],"stateMutability":"view"},{"type":"function","name":"getMaxBorrow","inputs":[{"name":"owner","type":"address","internalType":"address"}],"outputs":[{"name":"","type":"uint256","internalType":"uint256"}],"stateMutability":"view"},{"type":"function","name":"interestRateBps","inputs":[],"outputs":[{"name":"","type":"uint256","internalType":"uint256"}],"stateMutability":"view"},{"type":"function","name":"liquidate","inputs":[{"name":"owner","type":"address","internalType":"address"},{"name":"debtToCover","type":"uint256","internalType":"uint256"}],"outputs":[],"stateMutability":"nonpayable"},{"type":"function","name":"minCollateral","inputs":[],"outputs":[{"name":"","type":"uint256","internalType":"uint256"}],"stateMutability":"view"},{"type":"function","name":"musdToken","inputs":[],"outputs":[{"name":"","type":"address","internalType":"contract IERC20"}],"stateMutability":"view"},{"type":"function","name":"owner","inputs":[],"outputs":[{"name":"","type":"address","internalType":"address"}],"stateMutability":"view"},{"type":"function","name":"positions","inputs":[{"name":"","type":"address","internalType":"address"}],"outputs":[{"name":"btcDeposited","type":"uint256","internalType":"uint256"},{"name":"musdBorrowed","type":"uint256","internalType":"uint256"},{"name":"lastAccruedAt","type":"uint256","internalType":"uint256"},{"name":"exists","type":"bool","internalType":"bool"}],"stateMutability":"view"},{"type":"function","name":"priceFeed","inputs":[],"outputs":[{"name":"","type":"address","internalType":"contract PriceFeed"}],"stateMutability":"view"},{"type":"function","name":"renounceOwnership","inputs":[],"outputs":[],"stateMutability":"nonpayable"},{"type":"function","name":"repay","inputs":[{"name":"amount","type":"uint256","internalType":"uint256"}],"outputs":[],"stateMutability":"nonpayable"},{"type":"function","name":"totalBtcDeposited","inputs":[],"outputs":[{"name":"","type":"uint256","internalType":"uint256"}],"stateMutability":"view"},{"type":"function","name":"totalMusdBorrowed","inputs":[],"outputs":[{"name":"","type":"uint256","internalType":"uint256"}],"stateMutability":"view"},{"type":"function","name":"transferOwnership","inputs":[{"name":"newOwner","type":"address","internalType":"address"}],"outputs":[],"stateMutability":"nonpayable"},{"type":"function","name":"updateConfig","inputs":[{"name":"_minCollateral","type":"uint256","internalType":"uint256"},{"name":"_feeRateBps","type":"uint256","internalType":"uint256"},{"name":"_interestRateBps","type":"uint256","internalType":"uint256"}],"outputs":[],"stateMutability":"nonpayable"},{"type":"function","name":"withdrawCollateral","inputs":[{"name":"amount","type":"uint256","internalType":"uint256"}],"outputs":[],"stateMutability":"nonpayable"},{"type":"event","name":"Borrowed","inputs":[{"name":"owner","type":"address","indexed":true,"internalType":"address"},{"name":"amount","type":"uint256","indexed":false,"internalType":"uint256"},{"name":"totalDebt","type":"uint256","indexed":false,"internalType":"uint256"}],"anonymous":false},{"type":"event","name":"CardCreated","inputs":[{"name":"owner","type":"address","indexed":true,"internalType":"address"},{"name":"cardId","type":"bytes32","indexed":false,"internalType":"bytes32"},{"name":"limit","type":"uint256","indexed":false,"internalType":"uint256"}],"anonymous":false},{"type":"event","name":"CollateralDeposited","inputs":[{"name":"owner","type":"address","indexed":true,"internalType":"address"},{"name":"amount","type":"uint256","indexed":false,"internalType":"uint256"},{"name":"totalBtc","type":"uint256","indexed":false,"internalType":"uint256"}],"anonymous":false},{"type":"event","name":"CollateralWithdrawn","inputs":[{"name":"owner","type":"address","indexed":true,"internalType":"address"},{"name":"amount","type":"uint256","indexed":false,"internalType":"uint256"},{"name":"totalBtc","type":"uint256","indexed":false,"internalType":"uint256"}],"anonymous":false},{"type":"event","name":"InterestAccrued","inputs":[{"name":"owner","type":"address","indexed":true,"internalType":"address"},{"name":"interestAmount","type":"uint256","indexed":false,"internalType":"uint256"}],"anonymous":false},{"type":"event","name":"Liquidated","inputs":[{"name":"owner","type":"address","indexed":true,"internalType":"address"},{"name":"liquidator","type":"address","indexed":true,"internalType":"address"},{"name":"debtCovered","type":"uint256","indexed":false,"internalType":"uint256"},{"name":"collateralSeized","type":"uint256","indexed":false,"internalType":"uint256"}],"anonymous":false},{"type":"event","name":"OwnershipTransferred","inputs":[{"name":"previousOwner","type":"address","indexed":true,"internalType":"address"},{"name":"newOwner","type":"address","indexed":true,"internalType":"address"}],"anonymous":false},{"type":"event","name":"Repaid","inputs":[{"name":"owner","type":"address","indexed":true,"internalType":"address"},{"name":"amount","type":"uint256","indexed":false,"internalType":"uint256"},{"name":"remainingDebt","type":"uint256","indexed":false,"internalType":"uint256"}],"anonymous":false},{"type":"event","name":"VaultConfigUpdated","inputs":[{"name":"minCollateral","type":"uint256","indexed":false,"internalType":"uint256"},{"name":"feeRateBps","type":"uint256","indexed":false,"internalType":"uint256"},{"name":"interestRateBps","type":"uint256","indexed":false,"internalType":"uint256"}],"anonymous":false},{"type":"event","name":"VaultInitialized","inputs":[{"name":"btcToken","type":"address","indexed":false,"internalType":"address"},{"name":"musdToken","type":"address","indexed":false,"internalType":"address"},{"name":"priceFeed","type":"address","indexed":false,"internalType":"address"}],"anonymous":false},{"type":"error","name":"CardLimitExceeded","inputs":[]},{"type":"error","name":"CollateralRemaining","inputs":[]},{"type":"error","name":"ExceedsMaxLTV","inputs":[]},{"type":"error","name":"InsufficientAllowance","inputs":[]},{"type":"error","name":"InsufficientCollateral","inputs":[]},{"type":"error","name":"NotLiquidatable","inputs":[]},{"type":"error","name":"OutstandingLoan","inputs":[]},{"type":"error","name":"OverRepay","inputs":[]},{"type":"error","name":"OwnableInvalidOwner","inputs":[{"name":"owner","type":"address","internalType":"address"}]},{"type":"error","name":"OwnableUnauthorizedAccount","inputs":[{"name":"account","type":"address","internalType":"address"}]},{"type":"error","name":"PositionNotFound","inputs":[]},{"type":"error","name":"ReentrancyGuardReentrantCall","inputs":[]},{"type":"error","name":"StalePrice","inputs":[]},{"type":"error","name":"TransferFailed","inputs":[]},{"type":"error","name":"ZeroAmount","inputs":[]}],"bytecode":{"object":"0x60806040523480156200001157600080fd5b5060405162002c2c38038062002c2c833981810160405281019062000037919062000536565b33600073ffffffffffffffffffffffffffffffffffffffff168173ffffffffffffffffffffffffffffffffffffffff1603620000ad5760006040517f1e4fbdf7000000000000000000000000000000000000000000000000000000008152600401620000a49190620005e3565b60405180910390fd5b620000be81620003cd60201b60201c565b5060018081905550600073ffffffffffffffffffffffffffffffffffffffff168673ffffffffffffffffffffffffffffffffffffffff160362000138576040517f08c379a00000000000000000000000000000000000000000000000000000000081526004016200012f9062000661565b60405180910390fd5b600073ffffffffffffffffffffffffffffffffffffffff168573ffffffffffffffffffffffffffffffffffffffff1603620001aa576040517f08c379a0000000000000000000000000000000000000000000000000000000008152600401620001a190620006d3565b60405180910390fd5b600073ffffffffffffffffffffffffffffffffffffffff168473ffffffffffffffffffffffffffffffffffffffff16036200021c576040517f08c379a0000000000000000000000000000000000000000000000000000000008152600401620002139062000745565b60405180910390fd5b6101f482111562000264576040517f08c379a00000000000000000000000000000000000000000000000000000000081526004016200025b90620007b7565b60405180910390fd5b6107d0811115620002ac576040517f08c379a0000000000000000000000000000000000000000000000000000000008152600401620002a39062000829565b60405180910390fd5b85600260006101000a81548173ffffffffffffffffffffffffffffffffffffffff021916908373ffffffffffffffffffffffffffffffffffffffff16021790555084600360006101000a81548173ffffffffffffffffffffffffffffffffffffffff021916908373ffffffffffffffffffffffffffffffffffffffff16021790555083600460006101000a81548173ffffffffffffffffffffffffffffffffffffffff021916908373ffffffffffffffffffffffffffffffffffffffff1602179055508260058190555081600681905550806007819055507f3b5cd44ddb246b475b2c3f937f4f531a51a2e49049f26e4c6d58f040a49fbe11868686604051620003b9939291906200084b565b60405180910390a150505050505062000888565b60008060009054906101000a900473ffffffffffffffffffffffffffffffffffffffff169050816000806101000a81548173ffffffffffffffffffffffffffffffffffffffff021916908373ffffffffffffffffffffffffffffffffffffffff1602179055508173ffffffffffffffffffffffffffffffffffffffff168173ffffffffffffffffffffffffffffffffffffffff167f8be0079c531659141344cd1fd0a4f28419497f9722a3daafe3b4186f6b6457e060405160405180910390a35050565b600080fd5b600073ffffffffffffffffffffffffffffffffffffffff82169050919050565b6000620004c38262000496565b9050919050565b620004d581620004b6565b8114620004e157600080fd5b50565b600081519050620004f581620004ca565b92915050565b6000819050919050565b6200051081620004fb565b81146200051c57600080fd5b50565b600081519050620005308162000505565b92915050565b60008060008060008060c0878903121562000556576200055562000491565b5b60006200056689828a01620004e4565b96505060206200057989828a01620004e4565b95505060406200058c89828a01620004e4565b94505060606200059f89828a016200051f565b9350506080620005b289828a016200051f565b92505060a0620005c589828a016200051f565b9150509295509295509295565b620005dd81620004b6565b82525050565b6000602082019050620005fa6000830184620005d2565b92915050565b600082825260208201905092915050565b7f5a65726f2042544320746f6b656e000000000000000000000000000000000000600082015250565b600062000649600e8362000600565b9150620006568262000611565b602082019050919050565b600060208201905081810360008301526200067c816200063a565b9050919050565b7f5a65726f204d55534420746f6b656e0000000000000000000000000000000000600082015250565b6000620006bb600f8362000600565b9150620006c88262000683565b602082019050919050565b60006020820190508181036000830152620006ee81620006ac565b9050919050565b7f5a65726f20707269636520666565640000000000000000000000000000000000600082015250565b60006200072d600f8362000600565b91506200073a82620006f5565b602082019050919050565b6000602082019050818103600083015262000760816200071e565b9050919050565b7f4665652072617465206d61782035250000000000000000000000000000000000600082015250565b60006200079f600f8362000600565b9150620007ac8262000767565b602082019050919050565b60006020820190508181036000830152620007d28162000790565b9050919050565b7f496e7465726573742072617465206d6178203230250000000000000000000000600082015250565b60006200081160158362000600565b91506200081e82620007d9565b602082019050919050565b60006020820190508181036000830152620008448162000802565b9050919050565b6000606082019050620008626000830186620005d2565b620008716020830185620005d2565b620008806040830184620005d2565b949350505050565b61239480620008986000396000f3fe608060405234801561001057600080fd5b50600436106101cf5760003560e01c80639198e51511610104578063c5ebeaec116100a2578063f2fde38b11610071578063f2fde38b146104d9578063fc54ddfb146104f5578063fd1c317a14610513578063fe6bcd7c14610543576101cf565b8063c5ebeaec14610463578063c84a208b1461047f578063e1f1c4a71461049d578063e6a69ab8146104bb576101cf565b8063a0edc786116100de578063a0edc786146103ef578063ba2de9bc1461040d578063bad4a01f1461042b578063bcbaf48714610447576101cf565b80639198e5151461038557806397904e42146103a15780639d78d46b146103d1576101cf565b806355f575101161017157806373ad49461161014b57806373ad49461461030f578063741bef1a1461032b57806388c7fff3146103495780638da5cb5b14610367576101cf565b806355f57510146102b65780636112fe2e146102e9578063715018a614610305576101cf565b8063307ae5d1116101ad578063307ae5d11461022e57806331674e321461024c578063371fd8e61461027c578063552033c414610298576101cf565b8063074bc101146101d45780631bfaae1d146101f2578063251e297014610210575b600080fd5b6101dc610573565b6040516101e99190611d70565b60405180910390f35b6101fa610599565b6040516102079190611da4565b60405180910390f35b61021861059f565b6040516102259190611da4565b60405180910390f35b6102366105a5565b6040516102439190611da4565b60405180910390f35b61026660048036038101906102619190611e02565b6105ab565b6040516102739190611da4565b60405180910390f35b61029660048036038101906102919190611e5b565b610686565b005b6102a061090c565b6040516102ad9190611da4565b60405180910390f35b6102d060048036038101906102cb9190611e02565b61091c565b6040516102e09493929190611ea3565b60405180910390f35b61030360048036038101906102fe9190611e5b565b610959565b005b61030d610c1c565b005b61032960048036038101906103249190611ee8565b610c30565b005b610333610d17565b6040516103409190611f5c565b60405180910390f35b610351610d3d565b60405161035e9190611da4565b60405180910390f35b61036f610d43565b60405161037c9190611f86565b60405180910390f35b61039f600480360381019061039a9190611e02565b610d6c565b005b6103bb60048036038101906103b69190611e02565b610ee5565b6040516103c89190611da4565b60405180910390f35b6103d9611018565b6040516103e69190611d70565b60405180910390f35b6103f761103e565b6040516104049190611da4565b60405180910390f35b610415611044565b6040516104229190611da4565b60405180910390f35b61044560048036038101906104409190611e5b565b61104a565b005b610461600480360381019061045c9190611fa1565b61127e565b005b61047d60048036038101906104789190611e5b565b6116e1565b005b61048761196f565b6040516104949190611da4565b60405180910390f35b6104a5611975565b6040516104b29190611da4565b60405180910390f35b6104c361197b565b6040516104d09190611da4565b60405180910390f35b6104f360048036038101906104ee9190611e02565b611983565b005b6104fd611a09565b60405161050a9190611da4565b60405180910390f35b61052d60048036038101906105289190611e02565b611a0f565b60405161053a9190611da4565b60405180910390f35b61055d60048036038101906105589190611e02565b611ae2565b60405161056a9190611da4565b60405180910390f35b600260009054906101000a900473ffffffffffffffffffffffffffffffffffffffff1681565b61177081565b60085481565b60095481565b600080600a60008473ffffffffffffffffffffffffffffffffffffffff1673ffffffffffffffffffffffffffffffffffffffff16815260200190815260200160002090508060030160009054906101000a900460ff161580610611575060008160010154145b15610620576000915050610681565b600061062b84610ee5565b90506000810361065f577fffffffffffffffffffffffffffffffffffffffffffffffffffffffffffffffff92505050610681565b8061271083600101546106729190612010565b61067c9190612081565b925050505b919050565b61068e611b4f565b600081036106c8576040517f1f2a200500000000000000000000000000000000000000000000000000000000815260040160405180910390fd5b6000600a60003373ffffffffffffffffffffffffffffffffffffffff1673ffffffffffffffffffffffffffffffffffffffff16815260200190815260200160002090508060030160009054906101000a900460ff16610753576040517f6ec9be1100000000000000000000000000000000000000000000000000000000815260040160405180910390fd5b61075c33610d6c565b806001015482111561079a576040517fe8cc3bfe00000000000000000000000000000000000000000000000000000000815260040160405180910390fd5b818160010160008282546107ae91906120b2565b9250508190555081600960008282546107c791906120b2565b925050819055506000600360009054906101000a900473ffffffffffffffffffffffffffffffffffffffff1673ffffffffffffffffffffffffffffffffffffffff166323b872dd3330866040518463ffffffff1660e01b815260040161082f939291906120e6565b6020604051808303816000875af115801561084e573d6000803e3d6000fd5b505050506040513d601f19601f820116820180604052508101906108729190612149565b9050806108ab576040517f90b8ec1800000000000000000000000000000000000000000000000000000000815260040160405180910390fd5b3373ffffffffffffffffffffffffffffffffffffffff167f1b8cd61ed43bec7c6bdad3a18ffee613f99c853d16c50678d248d879e1b434388484600101546040516108f7929190612176565b60405180910390a25050610909611b95565b50565b6b033b2e3c9fd0803ce800000081565b600a6020528060005260406000206000915090508060000154908060010154908060020154908060030160009054906101000a900460ff16905084565b610961611b4f565b6000810361099b576040517f1f2a200500000000000000000000000000000000000000000000000000000000815260040160405180910390fd5b6000600a60003373ffffffffffffffffffffffffffffffffffffffff1673ffffffffffffffffffffffffffffffffffffffff16815260200190815260200160002090508060030160009054906101000a900460ff16610a26576040517f6ec9be1100000000000000000000000000000000000000000000000000000000815260040160405180910390fd5b8181600001541015610a64576040517f3a23d82500000000000000000000000000000000000000000000000000000000815260040160405180910390fd5b610a6d33610d6c565b600081600101541115610aac576040517f7f21f59900000000000000000000000000000000000000000000000000000000815260040160405180910390fd5b81816000016000828254610ac091906120b2565b925050819055508160086000828254610ad991906120b2565b925050819055506000600260009054906101000a900473ffffffffffffffffffffffffffffffffffffffff1673ffffffffffffffffffffffffffffffffffffffff1663a9059cbb33856040518363ffffffff1660e01b8152600401610b3f92919061219f565b6020604051808303816000875af1158015610b5e573d6000803e3d6000fd5b505050506040513d601f19601f82011682018060405250810190610b829190612149565b905080610bbb576040517f90b8ec1800000000000000000000000000000000000000000000000000000000815260040160405180910390fd5b3373ffffffffffffffffffffffffffffffffffffffff167fdaed309a628faec6cab72194019e2a1a34e890ca9bf9be99788992dd54692819848460000154604051610c07929190612176565b60405180910390a25050610c19611b95565b50565b610c24611b9e565b610c2e6000611c25565b565b610c38611b9e565b6101f4821115610c7d576040517f08c379a0000000000000000000000000000000000000000000000000000000008152600401610c7490612225565b60405180910390fd5b6107d0811115610cc2576040517f08c379a0000000000000000000000000000000000000000000000000000000008152600401610cb990612291565b60405180910390fd5b8260058190555081600681905550806007819055507f8226352383b99b58ecc22a7ad7f309078c5c580bbcca11690be61762d89d7fc6838383604051610d0a939291906122b1565b60405180910390a1505050565b600460009054906101000a900473ffffffffffffffffffffffffffffffffffffffff1681565b60065481565b60008060009054906101000a900473ffffffffffffffffffffffffffffffffffffffff16905090565b6000600a60008373ffffffffffffffffffffffffffffffffffffffff1673ffffffffffffffffffffffffffffffffffffffff16815260200190815260200160002090508060030160009054906101000a900460ff161580610dd1575060008160010154145b80610dde57506000600754145b15610de95750610ee2565b6000816002015442610dfb91906120b2565b905060008103610e0c575050610ee2565b60006127106301e13380610e209190612010565b826007548560010154610e339190612010565b610e3d9190612010565b610e479190612081565b90506000811115610ede5780836001016000828254610e6691906122e8565b925050819055504283600201819055508060096000828254610e8891906122e8565b925050819055508373ffffffffffffffffffffffffffffffffffffffff167f5e804d42ae3b860f881d11cb44a4bb1f2f0d5b3d081f5539a32d6f97b629d97882604051610ed59190611da4565b60405180910390a25b5050505b50565b600080600a60008473ffffffffffffffffffffffffffffffffffffffff1673ffffffffffffffffffffffffffffffffffffffff16815260200190815260200160002090508060030160009054906101000a900460ff161580610f4b575060008160000154145b15610f5a576000915050611013565b6000600460009054906101000a900473ffffffffffffffffffffffffffffffffffffffff1673ffffffffffffffffffffffffffffffffffffffff1663a035b1fe6040518163ffffffff1660e01b8152600401602060405180830381865afa158015610fc9573d6000803e3d6000fd5b505050506040513d601f19601f82011682018060405250810190610fed9190612331565b90506305f5e1008183600001546110049190612010565b61100e9190612081565b925050505b919050565b600360009054906101000a900473ffffffffffffffffffffffffffffffffffffffff1681565b611d4c81565b60055481565b611052611b4f565b6000810361108c576040517f1f2a200500000000000000000000000000000000000000000000000000000000815260040160405180910390fd5b6000600260009054906101000a900473ffffffffffffffffffffffffffffffffffffffff1673ffffffffffffffffffffffffffffffffffffffff166323b872dd3330856040518463ffffffff1660e01b81526004016110ed939291906120e6565b6020604051808303816000875af115801561110c573d6000803e3d6000fd5b505050506040513d601f19601f820116820180604052508101906111309190612149565b905080611169576040517f90b8ec1800000000000000000000000000000000000000000000000000000000815260040160405180910390fd5b6000600a60003373ffffffffffffffffffffffffffffffffffffffff1673ffffffffffffffffffffffffffffffffffffffff16815260200190815260200160002090508060030160009054906101000a900460ff166111e95760018160030160006101000a81548160ff0219169083151502179055504281600201819055505b828160000160008282546111fd91906122e8565b92505081905550826008600082825461121691906122e8565b925050819055503373ffffffffffffffffffffffffffffffffffffffff167ff4d587c98d234ca4d147061e6b5167e7f41ee17f11562a9f0b49570abece859e848360000154604051611269929190612176565b60405180910390a2505061127b611b95565b50565b611286611b4f565b600081036112c0576040517f1f2a200500000000000000000000000000000000000000000000000000000000815260040160405180910390fd5b3373ffffffffffffffffffffffffffffffffffffffff168273ffffffffffffffffffffffffffffffffffffffff16036112f857600080fd5b6000600a60008473ffffffffffffffffffffffffffffffffffffffff1673ffffffffffffffffffffffffffffffffffffffff16815260200190815260200160002090508060030160009054906101000a900460ff16611383576040517f6ec9be1100000000000000000000000000000000000000000000000000000000815260040160405180910390fd5b61138c83610d6c565b6000611397846105ab565b9050611d4c81116113d4576040517fddeb79ba00000000000000000000000000000000000000000000000000000000815260040160405180910390fd5b81600101548311156113e857816001015492505b60006127106101f4856113fb9190612010565b6114059190612081565b90506000818561141591906122e8565b905083600001548111156114485783600001549050848111611438576000611445565b848161144491906120b2565b5b91505b6000600360009054906101000a900473ffffffffffffffffffffffffffffffffffffffff1673ffffffffffffffffffffffffffffffffffffffff166323b872dd3330896040518463ffffffff1660e01b81526004016114a9939291906120e6565b6020604051808303816000875af11580156114c8573d6000803e3d6000fd5b505050506040513d601f19601f820116820180604052508101906114ec9190612149565b905080611525576040517f90b8ec1800000000000000000000000000000000000000000000000000000000815260040160405180910390fd5b8185600001600082825461153991906120b2565b925050819055508585600101600082825461155491906120b2565b92505081905550816008600082825461156d91906120b2565b92505081905550856009600082825461158691906120b2565b925050819055506000600260009054906101000a900473ffffffffffffffffffffffffffffffffffffffff1673ffffffffffffffffffffffffffffffffffffffff1663a9059cbb33856040518363ffffffff1660e01b81526004016115ec92919061219f565b6020604051808303816000875af115801561160b573d6000803e3d6000fd5b505050506040513d601f19601f8201168201806040525081019061162f9190612149565b905080611668576040517f90b8ec1800000000000000000000000000000000000000000000000000000000815260040160405180910390fd5b3373ffffffffffffffffffffffffffffffffffffffff168873ffffffffffffffffffffffffffffffffffffffff167f1f0c6615429d1cdae0dfa233abf91d3b31cdbdd82c8081389832a61e1072f1ea89866040516116c7929190612176565b60405180910390a35050505050506116dd611b95565b5050565b6116e9611b4f565b60008103611723576040517f1f2a200500000000000000000000000000000000000000000000000000000000815260040160405180910390fd5b6000600a60003373ffffffffffffffffffffffffffffffffffffffff1673ffffffffffffffffffffffffffffffffffffffff16815260200190815260200160002090508060030160009054906101000a900460ff166117ae576040517f6ec9be1100000000000000000000000000000000000000000000000000000000815260040160405180910390fd5b6117b733610d6c565b60006117c233611a0f565b9050808311156117fe576040517fa52d441200000000000000000000000000000000000000000000000000000000815260040160405180910390fd5b8282600101600082825461181291906122e8565b92505081905550826009600082825461182b91906122e8565b925050819055506000600360009054906101000a900473ffffffffffffffffffffffffffffffffffffffff1673ffffffffffffffffffffffffffffffffffffffff1663a9059cbb33866040518363ffffffff1660e01b815260040161189192919061219f565b6020604051808303816000875af11580156118b0573d6000803e3d6000fd5b505050506040513d601f19601f820116820180604052508101906118d49190612149565b90508061190d576040517f90b8ec1800000000000000000000000000000000000000000000000000000000815260040160405180910390fd5b3373ffffffffffffffffffffffffffffffffffffffff167feae9cfbc77fdd40ca899f36b608256063b2bc9d8178b0220f7ad513e178d6730858560010154604051611959929190612176565b60405180910390a250505061196c611b95565b50565b60075481565b61271081565b6301e1338081565b61198b611b9e565b600073ffffffffffffffffffffffffffffffffffffffff168173ffffffffffffffffffffffffffffffffffffffff16036119fd5760006040517f1e4fbdf70000000000000000000000000000000000000000000000000000000081526004016119f49190611f86565b60405180910390fd5b611a0681611c25565b50565b6101f481565b600080600a60008473ffffffffffffffffffffffffffffffffffffffff1673ffffffffffffffffffffffffffffffffffffffff16815260200190815260200160002090508060030160009054906101000a900460ff161580611a75575060008160000154145b15611a84576000915050611add565b6000611a8f84610ee5565b9050600061271061177083611aa49190612010565b611aae9190612081565b905082600101548111611ac75760009350505050611add565b826001015481611ad791906120b2565b93505050505b919050565b600080611aee836105ab565b905060008103611b21577fffffffffffffffffffffffffffffffffffffffffffffffffffffffffffffffff915050611b4a565b806b033b2e3c9fd0803ce8000000611d4c611b3c9190612010565b611b469190612081565b9150505b919050565b600260015403611b8b576040517f3ee5aeb500000000000000000000000000000000000000000000000000000000815260040160405180910390fd5b6002600181905550565b60018081905550565b611ba6611ce9565b73ffffffffffffffffffffffffffffffffffffffff16611bc4610d43565b73ffffffffffffffffffffffffffffffffffffffff1614611c2357611be7611ce9565b6040517f118cdaa7000000000000000000000000000000000000000000000000000000008152600401611c1a9190611f86565b60405180910390fd5b565b60008060009054906101000a900473ffffffffffffffffffffffffffffffffffffffff169050816000806101000a81548173ffffffffffffffffffffffffffffffffffffffff021916908373ffffffffffffffffffffffffffffffffffffffff1602179055508173ffffffffffffffffffffffffffffffffffffffff168173ffffffffffffffffffffffffffffffffffffffff167f8be0079c531659141344cd1fd0a4f28419497f9722a3daafe3b4186f6b6457e060405160405180910390a35050565b600033905090565b600073ffffffffffffffffffffffffffffffffffffffff82169050919050565b6000819050919050565b6000611d36611d31611d2c84611cf1565b611d11565b611cf1565b9050919050565b6000611d4882611d1b565b9050919050565b6000611d5a82611d3d565b9050919050565b611d6a81611d4f565b82525050565b6000602082019050611d856000830184611d61565b92915050565b6000819050919050565b611d9e81611d8b565b82525050565b6000602082019050611db96000830184611d95565b92915050565b600080fd5b6000611dcf82611cf1565b9050919050565b611ddf81611dc4565b8114611dea57600080fd5b50565b600081359050611dfc81611dd6565b92915050565b600060208284031215611e1857611e17611dbf565b5b6000611e2684828501611ded565b91505092915050565b611e3881611d8b565b8114611e4357600080fd5b50565b600081359050611e5581611e2f565b92915050565b600060208284031215611e7157611e70611dbf565b5b6000611e7f84828501611e46565b91505092915050565b60008115159050919050565b611e9d81611e88565b82525050565b6000608082019050611eb86000830187611d95565b611ec56020830186611d95565b611ed26040830185611d95565b611edf6060830184611e94565b95945050505050565b600080600060608486031215611f0157611f00611dbf565b5b6000611f0f86828701611e46565b9350506020611f2086828701611e46565b9250506040611f3186828701611e46565b9150509250925092565b6000611f4682611d3d565b9050919050565b611f5681611f3b565b82525050565b6000602082019050611f716000830184611f4d565b92915050565b611f8081611dc4565b82525050565b6000602082019050611f9b6000830184611f77565b92915050565b60008060408385031215611fb857611fb7611dbf565b5b6000611fc685828601611ded565b9250506020611fd785828601611e46565b9150509250929050565b7f4e487b7100000000000000000000000000000000000000000000000000000000600052601160045260246000fd5b600061201b82611d8b565b915061202683611d8b565b925082820261203481611d8b565b9150828204841483151761204b5761204a611fe1565b5b5092915050565b7f4e487b7100000000000000000000000000000000000000000000000000000000600052601260045260246000fd5b600061208c82611d8b565b915061209783611d8b565b9250826120a7576120a6612052565b5b828204905092915050565b60006120bd82611d8b565b91506120c883611d8b565b92508282039050818111156120e0576120df611fe1565b5b92915050565b60006060820190506120fb6000830186611f77565b6121086020830185611f77565b6121156040830184611d95565b949350505050565b61212681611e88565b811461213157600080fd5b50565b6000815190506121438161211d565b92915050565b60006020828403121561215f5761215e611dbf565b5b600061216d84828501612134565b91505092915050565b600060408201905061218b6000830185611d95565b6121986020830184611d95565b9392505050565b60006040820190506121b46000830185611f77565b6121c16020830184611d95565b9392505050565b600082825260208201905092915050565b7f4665652072617465206d61782035250000000000000000000000000000000000600082015250565b600061220f600f836121c8565b915061221a826121d9565b602082019050919050565b6000602082019050818103600083015261223e81612202565b9050919050565b7f496e7465726573742072617465206d6178203230250000000000000000000000600082015250565b600061227b6015836121c8565b915061228682612245565b602082019050919050565b600060208201905081810360008301526122aa8161226e565b9050919050565b60006060820190506122c66000830186611d95565b6122d36020830185611d95565b6122e06040830184611d95565b949350505050565b60006122f382611d8b565b91506122fe83611d8b565b925082820190508082111561231657612315611fe1565b5b92915050565b60008151905061232b81611e2f565b92915050565b60006020828403121561234757612346611dbf565b5b60006123558482850161231c565b9150509291505056fea2646970667358221220940a33df2b33e60cba5b3bdc2dde75950a699a97572faa55ec8e46837d0a007364736f6c63430008180033","linkReferences":{}},"methodIdentifiers":{"BASIS_POINTS()":"e1f1c4a7","LIQUIDATION_LTV_BPS()":"a0edc786","LIQUIDATION_PENALTY_BPS()":"fc54ddfb","MAX_LTV_BPS()":"1bfaae1d","RAY()":"552033c4","SECONDS_PER_YEAR()":"e6a69ab8","accrueInterest(address)":"9198e515","borrow(uint256)":"c5ebeaec","btcToken()":"074bc101","depositCollateral(uint256)":"bad4a01f","feeRateBps()":"88c7fff3","getCollateralValue(address)":"97904e42","getCurrentLtv(address)":"31674e32","getHealthFactor(address)":"fe6bcd7c","getMaxBorrow(address)":"fd1c317a","interestRateBps()":"c84a208b","liquidate(address,uint256)":"bcbaf487","minCollateral()":"ba2de9bc","musdToken()":"9d78d46b","owner()":"8da5cb5b","positions(address)":"55f57510","priceFeed()":"741bef1a","renounceOwnership()":"715018a6","repay(uint256)":"371fd8e6","totalBtcDeposited()":"251e2970","totalMusdBorrowed()":"307ae5d1","transferOwnership(address)":"f2fde38b","updateConfig(uint256,uint256,uint256)":"73ad4946","withdrawCollateral(uint256)":"6112fe2e"},"id":28}