{"abi":[{"type":"constructor","inputs":[{"name":"_initialPrice","type":"uint256","internalType":"uint256"}],"stateMutability":"nonpayable"},{"type":"function","name":"STALENESS_THRESHOLD","inputs":[],"outputs":[{"name":"","type":"uint256","internalType":"uint256"}],"stateMutability":"view"},{"type":"function","name":"addOracle","inputs":[{"name":"_oracle","type":"address","internalType":"address"}],"outputs":[],"stateMutability":"nonpayable"},{"type":"function","name":"authorizedOracles","inputs":[{"name":"","type":"uint256","internalType":"uint256"}],"outputs":[{"name":"","type":"address","internalType":"address"}],"stateMutability":"view"},{"type":"function","name":"getPrice","inputs":[],"outputs":[{"name":"","type":"uint256","internalType":"uint256"}],"stateMutability":"view"},{"type":"function","name":"getPriceUnsafe","inputs":[],"outputs":[{"name":"","type":"uint256","internalType":"uint256"}],"stateMutability":"view"},{"type":"function","name":"isOracle","inputs":[{"name":"","type":"address","internalType":"address"}],"outputs":[{"name":"","type":"bool","internalType":"bool"}],"stateMutability":"view"},{"type":"function","name":"oracleCount","inputs":[],"outputs":[{"name":"","type":"uint256","internalType":"uint256"}],"stateMutability":"view"},{"type":"function","name":"owner","inputs":[],"outputs":[{"name":"","type":"address","internalType":"address"}],"stateMutability":"view"},{"type":"function","name":"price","inputs":[],"outputs":[{"name":"","type":"uint256","internalType":"uint256"}],"stateMutability":"view"},{"type":"function","name":"removeOracle","inputs":[{"name":"_oracle","type":"address","internalType":"address"}],"outputs":[],"stateMutability":"nonpayable"},{"type":"function","name":"renounceOwnership","inputs":[],"outputs":[],"stateMutability":"nonpayable"},{"type":"function","name":"transferOwnership","inputs":[{"name":"newOwner","type":"address","internalType":"address"}],"outputs":[],"stateMutability":"nonpayable"},{"type":"function","name":"updatePrice","inputs":[{"name":"_price","type":"uint256","internalType":"uint256"}],"outputs":[],"stateMutability":"nonpayable"},{"type":"function","name":"updatedAt","inputs":[],"outputs":[{"name":"","type":"uint256","internalType":"uint256"}],"stateMutability":"view"},{"type":"event","name":"OracleAdded","inputs":[{"name":"oracle","type":"address","indexed":false,"internalType":"address"}],"anonymous":false},{"type":"event","name":"OracleRemoved","inputs":[{"name":"oracle","type":"address","indexed":false,"internalType":"address"}],"anonymous":false},{"type":"event","name":"OwnershipTransferred","inputs":[{"name":"previousOwner","type":"address","indexed":true,"internalType":"address"},{"name":"newOwner","type":"address","indexed":true,"internalType":"address"}],"anonymous":false},{"type":"event","name":"PriceUpdated","inputs":[{"name":"price","type":"uint256","indexed":false,"internalType":"uint256"},{"name":"timestamp","type":"uint256","indexed":false,"internalType":"uint256"}],"anonymous":false},{"type":"error","name":"AlreadyOracle","inputs":[]},{"type":"error","name":"NotOracle","inputs":[]},{"type":"error","name":"OwnableInvalidOwner","inputs":[{"name":"owner","type":"address","internalType":"address"}]},{"type":"error","name":"OwnableUnauthorizedAccount","inputs":[{"name":"account","type":"address","internalType":"address"}]},{"type":"error","name":"StalePrice","inputs":[]},{"type":"error","name":"UnauthorizedOracle","inputs":[]},{"type":"error","name":"ZeroAddress","inputs":[]}],"bytecode":{"object":"0x60806040523480156200001157600080fd5b506040516200127e3803806200127e8339818101604052810190620000379190620002d9565b33600073ffffffffffffffffffffffffffffffffffffffff168173ffffffffffffffffffffffffffffffffffffffff1603620000ad5760006040517f1e4fbdf7000000000000000000000000000000000000000000000000000000008152600401620000a4919062000350565b60405180910390fd5b620000be81620001d560201b60201c565b506000811162000105576040517f08c379a0000000000000000000000000000000000000000000000000000000008152600401620000fc90620003ce565b60405180910390fd5b80600181905550426002819055506003339080600181540180825580915050600190039060005260206000200160009091909190916101000a81548173ffffffffffffffffffffffffffffffffffffffff021916908373ffffffffffffffffffffffffffffffffffffffff1602179055506001600460003373ffffffffffffffffffffffffffffffffffffffff1673ffffffffffffffffffffffffffffffffffffffff16815260200190815260200160002060006101000a81548160ff02191690831515021790555050620003f0565b60008060009054906101000a900473ffffffffffffffffffffffffffffffffffffffff169050816000806101000a81548173ffffffffffffffffffffffffffffffffffffffff021916908373ffffffffffffffffffffffffffffffffffffffff1602179055508173ffffffffffffffffffffffffffffffffffffffff168173ffffffffffffffffffffffffffffffffffffffff167f8be0079c531659141344cd1fd0a4f28419497f9722a3daafe3b4186f6b6457e060405160405180910390a35050565b600080fd5b6000819050919050565b620002b3816200029e565b8114620002bf57600080fd5b50565b600081519050620002d381620002a8565b92915050565b600060208284031215620002f257620002f162000299565b5b60006200030284828501620002c2565b91505092915050565b600073ffffffffffffffffffffffffffffffffffffffff82169050919050565b600062000338826200030b565b9050919050565b6200034a816200032b565b82525050565b60006020820190506200036760008301846200033f565b92915050565b600082825260208201905092915050565b7f5072696365206d757374206265203e2030000000000000000000000000000000600082015250565b6000620003b66011836200036d565b9150620003c3826200037e565b602082019050919050565b60006020820190508181036000830152620003e981620003a7565b9050919050565b610e7e80620004006000396000f3fe608060405234801561001057600080fd5b50600436106100ea5760003560e01c806398d5fdca1161008c578063df2870a911610066578063df2870a914610229578063df5dd1a514610247578063f2fde38b14610263578063fdc85fc41461027f576100ea565b806398d5fdca146101bd578063a035b1fe146101db578063a97e5c93146101f9576100ea565b80637519ab50116100c85780637519ab50146101355780638d6cc56d146101535780638da5cb5b1461016f57806396dbbf5f1461018d576100ea565b8063613d8fcc146100ef578063715018a61461010d5780637215b0bf14610117575b600080fd5b6100f761029b565b6040516101049190610b49565b60405180910390f35b6101156102a8565b005b61011f6102bc565b60405161012c9190610b49565b60405180910390f35b61013d6102c2565b60405161014a9190610b49565b60405180910390f35b61016d60048036038101906101689190610b95565b6102c8565b005b61017761035d565b6040516101849190610c03565b60405180910390f35b6101a760048036038101906101a29190610b95565b610386565b6040516101b49190610c03565b60405180910390f35b6101c56103c5565b6040516101d29190610b49565b60405180910390f35b6101e3610418565b6040516101f09190610b49565b60405180910390f35b610213600480360381019061020e9190610c4a565b61041e565b6040516102209190610c92565b60405180910390f35b61023161043e565b60405161023e9190610b49565b60405180910390f35b610261600480360381019061025c9190610c4a565b610448565b005b61027d60048036038101906102789190610c4a565b61062e565b005b61029960048036038101906102949190610c4a565b6106b4565b005b6000600380549050905090565b6102b0610958565b6102ba60006109df565b565b610e1081565b60025481565b6102d0610aa3565b60008111610313576040517f08c379a000000000000000000000000000000000000000000000000000000000815260040161030a90610d0a565b60405180910390fd5b80600181905550426002819055507f945c1c4e99aa89f648fbfe3df471b916f719e16d960fcec0737d4d56bd6968388142604051610352929190610d2a565b60405180910390a150565b60008060009054906101000a900473ffffffffffffffffffffffffffffffffffffffff16905090565b6003818154811061039657600080fd5b906000526020600020016000915054906101000a900473ffffffffffffffffffffffffffffffffffffffff1681565b6000610e106002546103d79190610d82565b421115610410576040517f19abf40e00000000000000000000000000000000000000000000000000000000815260040160405180910390fd5b600154905090565b60015481565b60046020528060005260406000206000915054906101000a900460ff1681565b6000600154905090565b610450610958565b600073ffffffffffffffffffffffffffffffffffffffff168173ffffffffffffffffffffffffffffffffffffffff16036104b6576040517fd92e233d00000000000000000000000000000000000000000000000000000000815260040160405180910390fd5b600460008273ffffffffffffffffffffffffffffffffffffffff1673ffffffffffffffffffffffffffffffffffffffff16815260200190815260200160002060009054906101000a900460ff161561053a576040517fc3f0eb7300000000000000000000000000000000000000000000000000000000815260040160405180910390fd5b6001600460008373ffffffffffffffffffffffffffffffffffffffff1673ffffffffffffffffffffffffffffffffffffffff16815260200190815260200160002060006101000a81548160ff0219169083151502179055506003819080600181540180825580915050600190039060005260206000200160009091909190916101000a81548173ffffffffffffffffffffffffffffffffffffffff021916908373ffffffffffffffffffffffffffffffffffffffff1602179055507e47706786c922d17b39285dc59d696bafea72c0b003d3841ae1202076f4c2e4816040516106239190610c03565b60405180910390a150565b610636610958565b600073ffffffffffffffffffffffffffffffffffffffff168173ffffffffffffffffffffffffffffffffffffffff16036106a85760006040517f1e4fbdf700000000000000000000000000000000000000000000000000000000815260040161069f9190610c03565b60405180910390fd5b6106b1816109df565b50565b6106bc610958565b600460008273ffffffffffffffffffffffffffffffffffffffff1673ffffffffffffffffffffffffffffffffffffffff16815260200190815260200160002060009054906101000a900460ff1661073f576040517f1bc2178f00000000000000000000000000000000000000000000000000000000815260040160405180910390fd5b6000600460008373ffffffffffffffffffffffffffffffffffffffff1673ffffffffffffffffffffffffffffffffffffffff16815260200190815260200160002060006101000a81548160ff02191690831515021790555060005b60038054905081101561091d578173ffffffffffffffffffffffffffffffffffffffff16600382815481106107d2576107d1610db6565b5b9060005260206000200160009054906101000a900473ffffffffffffffffffffffffffffffffffffffff1673ffffffffffffffffffffffffffffffffffffffff1603610910576003600160038054905061082c9190610de5565b8154811061083d5761083c610db6565b5b9060005260206000200160009054906101000a900473ffffffffffffffffffffffffffffffffffffffff166003828154811061087c5761087b610db6565b5b9060005260206000200160006101000a81548173ffffffffffffffffffffffffffffffffffffffff021916908373ffffffffffffffffffffffffffffffffffffffff16021790555060038054806108d6576108d5610e19565b5b6001900381819060005260206000200160006101000a81549073ffffffffffffffffffffffffffffffffffffffff0219169055905561091d565b808060010191505061079a565b507f9c8e7d83025bef8a04c664b2f753f64b8814bdb7e27291d7e50935f18cc3c7128160405161094d9190610c03565b60405180910390a150565b610960610b28565b73ffffffffffffffffffffffffffffffffffffffff1661097e61035d565b73ffffffffffffffffffffffffffffffffffffffff16146109dd576109a1610b28565b6040517f118cdaa70000000000000000000000000000000000000000000000000000000081526004016109d49190610c03565b60405180910390fd5b565b60008060009054906101000a900473ffffffffffffffffffffffffffffffffffffffff169050816000806101000a81548173ffffffffffffffffffffffffffffffffffffffff021916908373ffffffffffffffffffffffffffffffffffffffff1602179055508173ffffffffffffffffffffffffffffffffffffffff168173ffffffffffffffffffffffffffffffffffffffff167f8be0079c531659141344cd1fd0a4f28419497f9722a3daafe3b4186f6b6457e060405160405180910390a35050565b600460003373ffffffffffffffffffffffffffffffffffffffff1673ffffffffffffffffffffffffffffffffffffffff16815260200190815260200160002060009054906101000a900460ff16610b26576040517fdb8d1fb700000000000000000000000000000000000000000000000000000000815260040160405180910390fd5b565b600033905090565b6000819050919050565b610b4381610b30565b82525050565b6000602082019050610b5e6000830184610b3a565b92915050565b600080fd5b610b7281610b30565b8114610b7d57600080fd5b50565b600081359050610b8f81610b69565b92915050565b600060208284031215610bab57610baa610b64565b5b6000610bb984828501610b80565b91505092915050565b600073ffffffffffffffffffffffffffffffffffffffff82169050919050565b6000610bed82610bc2565b9050919050565b610bfd81610be2565b82525050565b6000602082019050610c186000830184610bf4565b92915050565b610c2781610be2565b8114610c3257600080fd5b50565b600081359050610c4481610c1e565b92915050565b600060208284031215610c6057610c5f610b64565b5b6000610c6e84828501610c35565b91505092915050565b60008115159050919050565b610c8c81610c77565b82525050565b6000602082019050610ca76000830184610c83565b92915050565b600082825260208201905092915050565b7f5072696365206d757374206265203e2030000000000000000000000000000000600082015250565b6000610cf4601183610cad565b9150610cff82610cbe565b602082019050919050565b60006020820190508181036000830152610d2381610ce7565b9050919050565b6000604082019050610d3f6000830185610b3a565b610d4c6020830184610b3a565b9392505050565b7f4e487b7100000000000000000000000000000000000000000000000000000000600052601160045260246000fd5b6000610d8d82610b30565b9150610d9883610b30565b9250828201905080821115610db057610daf610d53565b5b92915050565b7f4e487b7100000000000000000000000000000000000000000000000000000000600052603260045260246000fd5b6000610df082610b30565b9150610dfb83610b30565b9250828203905081811115610e1357610e12610d53565b5b92915050565b7f4e487b7100000000000000000000000000000000000000000000000000000000600052603160045260246000fdfea2646970667358221220cf56e66636d0983fb2db4da911ff46f8c43e6931ff5b55d3160dd2e1cbd5d1ae64736f6c63430008180033","linkReferences":{}},"methodIdentifiers":{"STALENESS_THRESHOLD()":"7215b0bf","addOracle(address)":"df5dd1a5","authorizedOracles(uint256)":"96dbbf5f","getPrice()":"98d5fdca","getPriceUnsafe()":"df2870a9","isOracle(address)":"a97e5c93","oracleCount()":"613d8fcc","owner()":"8da5cb5b","price()":"a035b1fe","removeOracle(address)":"fdc85fc4","renounceOwnership()":"715018a6","transferOwnership(address)":"f2fde38b","updatePrice(uint256)":"8d6cc56d","updatedAt()":"7519ab50"},"id":30}